{
  "_format": "hh-sol-artifact-1",
  "contractName": "expense",
  "sourceName": "contracts/expense.sol",
  "abi": [
    {
      "inputs": [],
      "stateMutability": "nonpayable",
      "type": "constructor"
    },
    {
      "inputs": [],
      "name": "getExpenses",
      "outputs": [
        {
          "components": [
            {
              "internalType": "uint256",
              "name": "amount",
              "type": "uint256"
            },
            {
              "internalType": "address",
              "name": "sender",
              "type": "address"
            },
            {
              "internalType": "address payable",
              "name": "receiver",
              "type": "address"
            }
          ],
          "internalType": "struct expense.Exp[]",
          "name": "",
          "type": "tuple[]"
        }
      ],
      "stateMutability": "view",
      "type": "function"
    },
    {
      "inputs": [
        {
          "internalType": "address payable",
          "name": "receiver",
          "type": "address"
        }
      ],
      "name": "sendBal",
      "outputs": [],
      "stateMutability": "payable",
      "type": "function"
    }
  ],
  "bytecode": "0x608060405234801561001057600080fd5b5033600160006101000a81548173ffffffffffffffffffffffffffffffffffffffff021916908373ffffffffffffffffffffffffffffffffffffffff160217905550610508806100616000396000f3fe6080604052600436106100295760003560e01c806304cbda4e1461002e57806383a36a911461004a575b600080fd5b61004860048036038101906100439190610349565b610075565b005b34801561005657600080fd5b5061005f6101d1565b60405161006c91906104b0565b60405180910390f35b60003490508173ffffffffffffffffffffffffffffffffffffffff166108fc829081150290604051600060405180830381858888f193505050501580156100c0573d6000803e3d6000fd5b50600260405180606001604052808381526020013373ffffffffffffffffffffffffffffffffffffffff1681526020018473ffffffffffffffffffffffffffffffffffffffff1681525090806001815401808255809150506001900390600052602060002090600302016000909190919091506000820151816000015560208201518160010160006101000a81548173ffffffffffffffffffffffffffffffffffffffff021916908373ffffffffffffffffffffffffffffffffffffffff16021790555060408201518160020160006101000a81548173ffffffffffffffffffffffffffffffffffffffff021916908373ffffffffffffffffffffffffffffffffffffffff16021790555050505050565b60606002805480602002602001604051908101604052809291908181526020016000905b828210156102dd5783829060005260206000209060030201604051806060016040529081600082015481526020016001820160009054906101000a900473ffffffffffffffffffffffffffffffffffffffff1673ffffffffffffffffffffffffffffffffffffffff1673ffffffffffffffffffffffffffffffffffffffff1681526020016002820160009054906101000a900473ffffffffffffffffffffffffffffffffffffffff1673ffffffffffffffffffffffffffffffffffffffff1673ffffffffffffffffffffffffffffffffffffffff1681525050815260200190600101906101f5565b50505050905090565b600080fd5b600073ffffffffffffffffffffffffffffffffffffffff82169050919050565b6000610316826102eb565b9050919050565b6103268161030b565b811461033157600080fd5b50565b6000813590506103438161031d565b92915050565b60006020828403121561035f5761035e6102e6565b5b600061036d84828501610334565b91505092915050565b600081519050919050565b600082825260208201905092915050565b6000819050602082019050919050565b6000819050919050565b6103b5816103a2565b82525050565b60006103c6826102eb565b9050919050565b6103d6816103bb565b82525050565b6103e58161030b565b82525050565b60608201600082015161040160008501826103ac565b50602082015161041460208501826103cd565b50604082015161042760408501826103dc565b50505050565b600061043983836103eb565b60608301905092915050565b6000602082019050919050565b600061045d82610376565b6104678185610381565b935061047283610392565b8060005b838110156104a357815161048a888261042d565b975061049583610445565b925050600181019050610476565b5085935050505092915050565b600060208201905081810360008301526104ca8184610452565b90509291505056fea26469706673582212202a96bfe99a09c986c36bd197d0985e959855b1ccbb4b92b55bd00fcdf8827df264736f6c63430008110033",
  "linkReferences": {},
  "deployedLinkReferences": {}
}